:060000008831972D00007D
:080008008301803140017708FB
:10001000A0007808A1007908A2007A08A3000730A0
:10002000850016308400801E1B28073085000C30A8
:100030008400801A48280730850017308400801F0C
:100040002728073085000D308400801B4A280730A0
:10005000850019308400001C3328073085000F30DC
:10006000840000184C28073085001A308400801C5A
:100070003F28073085001030840080184E28200863
:10008000F7002108F8002208F9002308FA00090007
:100090008031562880315C28803163288031502897
:1000A0004E0190104001803140013F284E018C12DA
:1000B0004001803140013F2801004E018D13400175
:1000C000803140013F2843018F1A6928F2010F193E
:1000D000F2177208F20A4201B1003108803C031C99
:1000E00099283108803C031D7A2843010C084201FD
:1000F000B0008228430110130F1C7C280C08101636
:100100004201B000310B87283008F10099283108EE
:10011000013C031899283108803C0319992871087B
:10012000F10A043E8400203085000318850A300857
:10013000800031087F3C0318B9287108F10A043E99
:100140008400203085000318850A0008B2003208B8
:10015000B30043010C084201330843018C00101620
:100160004E010F1043010F18B328F801111FF80AB0
:1001700042014E010F104001803140013F28803084
:1001800041015C07DE000F305D3DDF005E0850017D
:100190009A0041015F0850019B009E171E14000049
:1001A00000001D08FA001C08F8001D08F9004001B5
:1001B0000800803041015E07E2000F305F3DE30040
:1001C000620850019A001A08FA00410163085001C0
:1001D0009B0041016008F8006108F9000B0842012A
:1001E000D4008B13E03050019A059E171E159E1601
:1001F00020308500943084002030F7001E14000069
:1002000000001A087A0203190C291C088000840ACD
:100210001D088000840A122978088000840A790861
:100220008000840A9A0AF70BFE289A03E0309A05A8
:100230001E1655309F00AA309F009E14000000003B
:100240001E1220308500943084002030F700000812
:100250009C00840A00089D00840A55309F00AA3043
:100260009F009E14000000009A0AF70B27299A03AA
:100270009E1255309F00AA309F009E14000000007F
:100280001E11420154088B04400108004101DF01A6
:100290000230DE00E101D830E0004001D920410108
:1002A000DF010430DE00E101D830E0004001D92058
:1002B0004101DF010630DE00E101D830E0004001FD
:1002C000D9204101DF010830DE00E101D830E00033
:1002D0004001D9204101DF010A30DE00E101E330B5
:1002E000E0004001D92008004101DF010C30DE00B0
:1002F0001230E100C030E0004001D9204101DF01AF
:100300000E30DE000130E100A930E0004001D920CC
:1003100008004101DF011430DE000230E100E0019D
:100320004001D9204101DF011630DE000230E1003A
:10033000E0014001D9204101DF011830DE00023028
:10034000E100E0014001D9204101DF011A30DE0067
:100350000230E100E0014001D92008004101DF0145
:10036000DE01E101AA30E0004001D92046217421DC
:1003700089218831BD2E4101DD010230DC004001C0
:10038000BF2079084101A7007808A600DD010430EC
:10039000DC004001BF2079084101A9007808A800CD
:1003A000DD010630DC004001BF2079084101AB00CF
:1003B0007808AA00DD010830DC004001BF20790880
:1003C0004101AD007808AC00DD010C30DC004001DB
:1003D000BF2079084101C7007808C600DD010E3052
:1003E000DC004001BF2079084101C5007808C40045
:1003F000DD011430DC004001BF2079084101D1004B
:100400007808D000DD011630DC004001BF207908FB
:100410004101D3007808D200400108008E30F70077
:1004200041016908F8006808F900FA01F808031D9D
:10043000232A7908F800F9010830F702F808031DAB
:10044000232AF7012B2A0310F81B2A2AF90DF80D8D
:10045000F703232AF8134001080041016808031933
:10046000202B4201A60041016C080319202B4201F8
:10047000A602031C422A7F30A607031C412A410121
:10048000202B4C2A8130A6020318482A4101202B38
:10049000031D4C2A4101202B2608F700F801F90121
:1004A000FA01A501410169084201A400A417410114
:1004B0006A084201A30041016B084201A200193001
:1004C000A60041016F084201A2020318792A0130F7
:1004D000A3020318792AA4020318792AA502031893
:1004E000792AA50AA40AA30A41016F084201A207BA
:1004F000B72A41016E084201A30203189A2A01306B
:10050000A40203189A2AA50203189A2AA50AA40A83
:1005100041016E084201A30741016F084201A20791
:10052000031CB72AA30A031DB72AA40A031DB72A6E
:10053000A50AB72A41016D0880384201A4020318B8
:10054000B62A0130A5020318B62AA50A41016D0892
:1005500080384201A40741016E084201A307031C31
:100560008C2AA40A031D8C2AA50A8C2A7A14A60BAD
:10057000BA2AC52A0310A20DA30DA40DA50D0310C0
:10058000FA0DF90DF80DA70D612A271CCD2A0310CD
:10059000F80CF90CFA0CA70CD12AF70BD12A41015F
:1005A000202BA71B002B0310A20DA30DA40DA50D3E
:1005B00041016F084201A2020318E82A0130A30298
:1005C0000318E82AA4020318E82AA502031C112B29
:1005D00041016E084201A3020318F52A0130A4026A
:1005E0000318F52AA502031C112B41016D08803860
:1005F0004201A4020318002B0130A502031C112B99
:10060000FA0A031D112BF90A031D112BF80A031D09
:10061000112BF70A031D0E2B4101202BF80CF90CAE
:10062000FA0C410169084201A60041016D0842012E
:10063000A606A61F1D2BF817252BF813252B410105
:10064000F701F801F901FA01420140010800BB215C
:1006500041013F08E9003E08E80040010E227A0807
:100660004101DF007908DE007808DD007708DC0052
:100670002708E9002608E80040010E2241015F0832
:10068000EB005E08EA005D08E9005C08E8007A0813
:10069000EF007908EE007808ED007708EC004001E3
:1006A0002D227A084101B1007908B0007808AF0026
:1006B0007708AE003F08E9003E08E80040010E223E
:1006C0007A084101DF007908DE007808DD0077084C
:1006D000DC002908E9002808E80040010E22410159
:1006E0005F08EB005E08EA005D08E9005C08E800CE
:1006F0007A08EF007908EE007808ED007708EC0042
:1007000040012D227A084101B5007908B40078082B
:10071000B3007708B2003F08E9003E08E800400156
:100720000E227A084101DF007908DE007808DD003A
:100730007708DC002B08E9002A08E80040010E22B7
:1007400041015F08EB005E08EA005D08E9005C0813
:10075000E8007A08EF007908EE007808ED007708E5
:10076000EC0040012D227A084101B9007908B80057
:100770007808B7007708B6003F08E9003E08E800AF
:1007800040010E227A084101DF007908DE00780876
:10079000DD007708DC002D08E9002C08E8004001A6
:1007A0000E2241015F08EB005E08EA005D08E900E7
:1007B0005C08E8007A08EF007908EE007808ED00A0
:1007C0007708EC0040012D227A084101BD0079082C
:1007D000BC007808BB007708BA004708E900460863
:1007E000E80040010E227A084101DF007908DE00AE
:1007F0007808DD007708DC004508E9004408E800D7
:1008000040010E2241015F08EB005E08EA005D082E
:10081000E9005C08E8007A08EF007908EE00780843
:10082000ED007708EC0040012D227A084101C30059
:100830007908C2007808C1007708C0005108E900B3
:100840005008E80040010E224101EB01EA0170303E
:10085000E9008430E8007A08EF007908EE007808B3
:10086000ED007708EC0040012D227A084101CB0011
:100870007908CA007808C9007708C8005308E90059
:100880005208E80040010E224101EB01EA017030FC
:10089000E9008430E8007A08EF007908EE00780873
:1008A000ED007708EC0040012D227A084101CF00CD
:1008B0007908CE007808CD007708CC004001080008
:1008C000203085009130840000080319782C013015
:1008D000F800BF30F7006400F70B6B2CF80B692CA5
:1008E0004A30F700F70B722C00006400800B672C75
:1008F000080012304101E202031C8E2C20308500DA
:1009000092308400FC3080050310800C800C0008BD
:1009100003198E2C8C2C6400800B8B2C400108005A
:100920004101DC01DE01DD01E001DF01DC015C08E9
:10093000093C031CB72C64000130E1004001602435
:1009400009304101E1006C30E200400179244101AD
:10095000E10BA32C9D149D18AB2C1B08DF001C0879
:10096000E0005F08DD076008DE3DDC0A972C5E08CA
:10097000E2005D08E100E4010A30E300F801F9015A
:10098000F701FA016408031DC82C63080319E22C5F
:100990001030E5000310E10DE20DF70DFA0D6408CB
:1009A0007A02031DD52C63087702031CDE2C630832
:1009B000F702031CFA036408FA020314F80DF90D98
:1009C000E50BCA2C7908E0007808DF005F08F80022
:1009D0006008F90040010800410164080319812DF5
:1009E0004201A000410168080319812D4201A007BE
:1009F0000318052D7F30A0020318002D4101812D21
:100A0000031D042D4101812D0B2D8130A007031CF6
:100A10000B2D4101812D2008F700F801F901FA01A1
:100A2000410165084201A400A41741016608420182
:100A3000A300410167084201A2001830A000A101F3
:100A4000221C452D41016B08FA07031C302DF90AC1
:100A5000031D302DF80A031D302D4201A11741015D
:100A60006A08F907031C3A2DF80A031D3A2D4201C2
:100A7000A11741016908E600E6176608F807031C9C
:100A8000442D4201A11741014201A10DF80CF90CBE
:100A9000FA0CA40CA30CA20C0310A00B1F2D013008
:100AA000F707031C552D4101812DF81B5F2DA40D67
:100AB000FA0DF90DF80DF70B5F2D4101812DA41FE3
:100AC000722DFA0A031D722DF90A031D722DF80A00
:100AD000031D722DF80CF90CFA0CF70A031D722D88
:100AE0004101812D410165084201A10041016908D0
:100AF0004201A106A11F7E2DF817862DF813862D21
:100B00004101F701F801F901FA0142014001080031
:100B10008030831C8E2D4101E30640014101EA0132
:100B2000EB015F08E9006308E9065E0803197F2E00
:100B3000E800F70062080319882EE8020319232E43
:100B4000031CE02D6308EE00EE176408ED00650855
:100B5000EC00EB010310EE0CED0CEC0CEB0CE80BD5
:100B6000A92DE91FB62D6A149C2E6A1068106A160A
:100B70002030850091308400B12E6A12E91BCA2D05
:100B8000681CD52DEE0CED0CEC0CEB0CF70A0319E0
:100B9000972ED52DEE1BD82D0310EB0DEC0DED0D82
:100BA000EE0DF7030319972ECA2D6A17442E6A1308
:100BB0005F08E900E91FDE2DEE17902EEE13902E50
:100BC0006208E800F7005E08E8025F08EE00EE1732
:100BD0006008ED006108EC00EB010310EE0CED0C79
:100BE000EC0CEB0CE80BEC2DE91FF92DEA149C2E14
:100BF000EA106810EA162030850095308400B12E86
:100C0000EA12E91B0D2E681C182EEE0CED0CEC0CF4
:100C1000EB0CF70A0319972E182EEE1B1B2E031050
:100C2000EB0DEC0DED0DEE0DF7030319972E0D2EC8
:100C3000EA17442EEA136308E900E91F212EEE1794
:100C4000902EEE13902E6308EE00EE176408ED0070
:100C50006508EC00E91F302EEE136A159C2E6A1110
:100C6000EB0168102030850091308400B12EE91B23
:100C70005A2E5F08E900681C442EEE0CED0CEC0CBB
:100C8000EB0CF70A0319972EEB1F552EEC0A031DE8
:100C9000552EED0A031D552EEE0A031D552EEE0CA2
:100CA000ED0CEC0CF70A0319972E6A1BD72DEA1BE3
:100CB0001A2E792E8030EE06EE1F622E9C2E6308CF
:100CC000E9006F2E5F08E900EE08031D6F2EED08A6
:100CD000031D6F2EEC08031D6F2EF701902EEE1BE7
:100CE000792E0310EB0DEC0DED0DEE0DF70B6F2EC5
:100CF000972EE91F7D2EEE17902EEE13902E620890
:100D0000F7006308EE006408ED006508EC00902E23
:100D10005E08F7005F08EE006008ED006108EC0077
:100D20006E08F8006D08F9006C08FA00CD2EF70186
:100D3000F801F901FA01CD2EEB01EC09ED09EE09FC
:100D4000EB09EB0A031DAA2EEC0A031DAA2EED0ADD
:100D50000319EE0A6A18B52DEA18F82D6A192F2E14
:100D60005F2E0008EC07031CBB2EED0A031DBB2EF3
:100D7000EE0A031968141100ED07031CC22EEE0AD7
:100D8000031968141100801F803AEE0703186814D5
:100D90006A1ABD2DEA1A002E372E400108008E3047
:100DA000F70041016008F7026108F9006208F800E5
:100DB000F917F7080319E72E0310F908031DE32EAE
:100DC000F8080319E72EF90CF80CF70BDC2EE11FDD
:100DD000EE2EF809F909F80A0319F90A400108008A
:100DE0004101D901D801DB01DA01DD01DC01D901C2
:100DF000D801D908031D1E2F5808093C031C1E2FBB
:100E000064000130E1004001602409304101DE004E
:100E10006C30E200400179244101DE0B082F9D1463
:100E20009D18102F1B08DC001C08DD005C08DA0789
:100E30005D08DB3DD80A0319D90AF92E5A08F800D3
:100E40005B08F9008831400195284101DC015D1003
:100E50009D1C5D14E101E001DF01DE01E501E4011B
:100E6000E301E201DC015C08C73C031C562F64006F
:100E70002030F700F70B3A2F3D2F9D149D183E2F81
:100E80001B08E2001C08E300E401E5015D184C2F9B
:100E90005D109D1C5D14462F6208DE076308DF3D70
:100EA0006408E03D6508E13DDC0A332F83106108EA
:100EB000E9006008E8005F08E7005E08E600ED0171
:100EC000EC01EB01C830EA0083186A2F203085005E
:100ED000A0308400F701F801F901FA014201A001F4
:100EE000A101A201A30141016D086C046B046A0415
:100EF0000319C62F20304201A40003104101E60D62
:100F0000E70DE80DE90D4201A00DA10DA20DA30D05
:100F100041016D0842012302031D9E2F41016C080F
:100F200042012202031D9E2F41016B084201210252
:100F3000031D9E2F41016A0842012002031CBF2F9E
:100F400041016A084201A00241016B08031C6B0FBA
:100F5000AA2FAD2F4201A10241016C08031C6C0FA6
:100F6000B22FB52F4201A20241016D08031C6D0F83
:100F7000BA2FBD2F4201A302410103144201F70D14
:100F8000F80DF90DFA0DA40B7D2F41014201200847
:100F900080002108813F2208823F2308833F7A088E
:100FA0004101E5007908E4007808E3007708E200F1
:0C0FB0006208F8006308F9004001080026
:101000003430F80041011D08033978049D00013097
:10101000E1008031400160248831803190248831A2
:1010200079084101D9007808D8005908DB00580830
:10103000DA00DD010A30DC001030DE00F701FA01D1
:10104000DB0CDA0C031C2A285C08F7070318FA0AE1
:101050005D08FA07FA0CF70CF90CF80CDE0B2028E7
:101060007908A1007808A0008031400190248831DF
:1010700079084101E9007808E800803140010E223A
:1010800088317A084101DB007908DA007808D90054
:101090007708D8005B08E7005A08E6005908E50021
:1010A0005808E4004B08EB004A08EA004908E90048
:1010B0004808E80080314001EC24883105084101EE
:1010C000D9000408D8008310E101E0010230DF00FC
:1010D0008630DE007A08E5007908E4007808E3004D
:1010E0007708E200803140018825883141015908A4
:1010F0008500580884007A08E3007908E20078083F
:10110000E1007708E00080314001CF26883179087E
:101110004101A5007808A4003030F8001D0803390B
:1011200078049D0080314001F02E8831790841011A
:10113000E9007808E800803140010E2288317A0801
:101140004101DB007908DA007808D9007708D80077
:101150005B08E7005A08E6005908E5005808E40073
:101160004F08EB004E08EA004D08E9004C08E80083
:1011700080314001EC2488317A084101DB00790894
:10118000DA007808D9007708D8000508DD000408DF
:10119000DC0083105B08E1005A08E0005908DF001A
:1011A0005808DE00E501C030E4000F30E3008B306A
:1011B000E200803140018825883141015D088500C9
:1011C0005C0884007A08E3007908E2007808E1000E
:1011D0007708E00080314001CF268831790841014D
:1011E000A3007808A200400108004101FA01240888
:1011F0004001A50041012508FA014001A600410176
:10120000FA0122084001A70041012308D800D901B2
:10121000FA0158084001A800A901AA01AB01AC01DC
:10122000FA016608AD0067084101D800D901FA014A
:1012300058084001AE00AF01B001B101B201FA019E
:101240006808B30069084101D800D901FA015808BB
:101250004001B400FA016A08B5006B084101D800EA
:10126000D901FA0158084001B600FA016C08B7002C
:101270006D084101D800D901FA0158084001B800B1
:10128000FA016E08B9006F084101D800D901FA01CE
:1012900058084001BA0088317C2B00200C30F8003F
:1012A00041011D08033978049D00803140019024DC
:1012B000883179084101D9007808D8005908E90037
:1012C0005808E800803140010E2288317A08410137
:1012D000E7007908E6007808E5007708E4003108BF
:1012E000EB003008EA002F08E9002E08E800803102
:1012F0004001EC2488317A084101E3007908E200DA
:101300007808E1007708E00080314001CF2688317D
:101310007908E9007808E8000430F80041011D0868
:10132000033978049D008031400190248831790888
:101330004101D9007808D8005908E9005808E800A8
:10134000803140010E2288317A084101E700790896
:10135000E6007808E5007708E4003508EB0034087B
:10136000EA003308E9003208E80080314001EC244B
:1013700088317A084101E3007908E2007808E10049
:101380007708E00080314001CF2688317908EB00F2
:101390007808EA000830F80041011D080339780494
:1013A0009D00803140019024883179084101D900A5
:1013B0007808D8005908E9005808E8008031400151
:1013C0000E2288317A084101E7007908E6007808A2
:1013D000E5007708E4003908EB003808EA00370830
:1013E000E9003608E80080314001EC2488317A08B1
:1013F0004101E3007908E2007808E1007708E000A5
:1014000080314001CF2688317908ED007808EC0062
:10141000F0191E2AF011033041012407F8000030B2
:10142000253DFA007A0840016902031C1D2A031DAC
:101430001C2A68087802031CF015302AF0114101BB
:10144000250840016902031C302A031D2F2A680861
:1014500041012402031C2E2A4001302A4001F015CC
:10146000701A462A7012033041012407F800003038
:10147000253DFA007A0840016B02031C452A031D32
:10148000442A6A087802031C7016582A7012410117
:10149000250840016B02031C582A031D572A6A08BD
:1014A00041012402031C562A4001582A40017016AB
:1014B000F01A6E2AF012033041012407F8000030C0
:1014C000253DFA007A0840016D02031C6D2A031DB8
:1014D0006C2A6C087802031CF016802AF012410175
:1014E000250840016D02031C802A031D7F2A6C0819
:1014F00041012402031C7E2A4001802A4001F0168B
:10150000701E842A9910852A99149310F01D8A2A36
:1015100019118B2A19151311F01E902A1910912AEE
:1015200019141310F01D9A2A701E9A2AF01E9A2A76
:1015300070159B2A70110020701DA02A1A11A12A73
:101540001A151B3094001430F80041011D080339AE
:1015500078049D000130E100803140016024883131
:1015600080319024883179084101D9007808D80069
:101570005908E9005808E800803140010E228831FE
:101580007A084101E7007908E6007808E500770865
:10159000E4003D08EB003C08EA003B08E9003A089B
:1015A000E80080314001EC2488317A084101E300F1
:1015B0007908E2007808E1007708E0008031400116
:1015C000CF2688317908EF007808EE00EF08031D78
:1015D000EF2A6E08783C031CEF2A9A13F02A9A1718
:1015E0001B3094000030F80041011D0803397804D5
:1015F0009D000130E100803140016024883180315C
:101600002527883179084101D9007808D800590880
:10161000E9005808E800803140010E2288317A083C
:101620004101E7007908E6007808E5007708E40062
:101630004308EB004208EA004108E9004008E800DE
:1016400080314001EC2488317A084101E3007908B7
:10165000E2007808E1007708E00080314001CF2601
:1016600088317908E7007808E60041019D149D184B
:10167000372B1B08D4001C08D500F01C572B323028
:101680002207F8000030233DFA007808400167087F
:101690007A02031C532B031D512B78086602031892
:1016A000532B7014552B7010F0106D2B410140011D
:1016B000670841012302031C6A2B031D672B2208C4
:1016C00040016602031C662B41016A2B4101701424
:1016D000F0146C2B7010F0104001701C712B1A1359
:1016E000722B1A171B3094007018782B9A12792BD2
:1016F0009A161B309400F5288831C92E41015D08E7
:10170000E9005C08E800803140010E2288317A0847
:101710004101E3007908E2007808E1007708E00081
:101720003F08E9003E08E800803140010E22883180
:101730007A084101E7007908E6007808E5007708B3
:10174000E4005F08E9005E08E800803140010E22F5
:10175000883141016708EB006608EA006508E90086
:101760006408E8007A08EF007908EE007808ED00D8
:101770007708EC00803140012D2288314101630857
:10178000E7006208E6006108E5006008E4007A0806
:10179000EB007908EA007808E9007708E800803172
:1017A0004001EC2488317A084101E3007908E20025
:1017B0007808E1007708E00080314001CF268831C9
:1017C00079084101DD007808DC005C08F8005D085C
:1017D000F90040010800BB08031DF12BBC080319E8
:1017E000232C3C084101D90040013B084101D800AD
:1017F0000C30F8001D08033978049D008031400149
:101800009024883179084101A7007808A6002708AC
:10181000DD002608DC005908DF005808DE00400122
:101820007E2379084101A7007808A600DF01023075
:10183000DE002708E1002608E00080314001D920C1
:101840008831BB01BC01BE08031D292CBD0803194A
:101850005B2C3E084101D90040013D084101D80000
:101860000430F8001D08033978049D0080314001E0
:101870009024883179084101A9007808A800290836
:10188000DD002808DC005908DF005808DE004001B0
:101890007E2379084101A9007808A800DF010430FF
:1018A000DE002908E1002808E00080314001D9204D
:1018B0008831BE01BD01C008031D612CBF0803199A
:1018C000932C40084101D90040013F084101D80054
:1018D0000830F8001D08033978049D00803140016C
:1018E0009024883179084101AB007808AA002B08C0
:1018F000DD002A08DC005908DF005808DE0040013E
:101900007E2379084101AB007808AA00DF01063088
:10191000DE002B08E1002A08E00080314001D920D8
:101920008831C001BF01C108031D992CC2080319E9
:10193000CB2C42084101D900400141084101D800A7
:101940001430F8001D08033978049D0080314001EF
:101950009024883179084101AD007808AC002D0849
:10196000DD002C08DC005908DF005808DE004001CB
:101970007E2379084101AD007808AC00DF01083012
:10198000DE002D08E1002C08E00080314001D92064
:101990008831C101C201CC08031DD12CCB08031929
:1019A000342D4C084101D90040014B084101D800B9
:1019B0005908033C031CE22C031DED2C5808E73C9E
:1019C0000318ED2C5908223C0318F12CFF3A031D93
:1019D000ED2C5808283C0318F12C01304001E4009C
:1019E00041010030F8001D08033978049D00803162
:1019F00040012527883179084101DB007808DA00A9
:101A0000DB08031D072D5A08313C0318122D590815
:101A1000013C0318162DFF3A031D122D5808BC3C3B
:101A20000318162D02304001E4004101DF010C30A3
:101A3000DE005908E1005808E00080314001D9205B
:101A400088314101DF010E30DE005B08E1005A08F9
:101A5000E00080314001D92088310130E30080313D
:101A6000BB218831CC01CB01440B552D3430F8001B
:101A700041011D08033978049D0080314001902404
:101A8000883179084101DD007808DC00DF0114307D
:101A9000DE005D08E1005C08E00080314001D920F3
:101AA0008831C4018031BB218831480B762D30301C
:101AB000F80041011D08033978049D008031400180
:101AC0009024883179084101DD007808DC00DF01CD
:101AD0001630DE005D08E1005C08E0008031400166
:101AE000D9208831C8018031BB218831430B7F2D3B
:101AF000803189218831C3018031BB2188315E0B5F
:101B0000882D803174218831DE018031BB218831FC
:101B10005D0B912D803146218831DD018031BB2163
:101B20008831803127238831E2018831DF2E55301A
:101B30007D018F00AA308F000F101330C5001430C4
:101B4000C60015307E01A3001630A40055307D017B
:101B50008F00AA308F000F14510192018F01910163
:101B60000230930060308D0040019415141643013B
:101B7000121092109211A0308D00FF308E0036307E
:101B80009000111491174001E701E601E901E80115
:101B9000EB01EA01ED01EC01EF01EE014101A101D0
:101BA000A001A301D130A2007010F0107015F01147
:101BB0007012F012A701DC30A600A901A800AB0149
:101BC000AA00AD01AC00AE30B1004730B00001302A
:101BD000AF007F30AE00AE30B5004730B40001300A
:101BE000B3007F30B200AE30B9004730B8000130EA
:101BF000B7007F30B600AE30BD004730BC000130CA
:101C0000BB007F30BA00BF01DC30BE003330C30000
:101C1000C2001B30C1008230C0000130C500B930A5
:101C2000C4001230C700C030C600C930CB007630C7
:101C3000CA003E30C9007B30C800C930CF007630C2
:101C4000CE003E30CD007C30CC00D101D001D3019C
:101C5000D2010330F2007E01B801C301CE0153016D
:101C600091019201930190019501960197019401D0
:101C700041011E109E102F307E01B8003030C3008D
:101C80000030CE0041011E169E161E139E171D1415
:101C900001304401910037308E008F0190015001D6
:101CA0000C100B134E0116127E01BD01BE014E0138
:101CB0001610161016101710191299121A109A10E1
:101CC0001C109C10191099109612971716127E016D
:101CD000481049104E0116127E01C810C9104E015D
:101CE00016127E01481149114E0116127E01C811CB
:101CF000C9114E0116127E01481249124E011612E8
:101D00007E01C812C9124E0116127E0148134913F2
:101D10004E0116127E01C813C9134E0119141B304F
:101D2000400194001A1194009A1394001A17940019
:101D30009A124101D60156083F3C031CA92E0430DB
:101D400056078400203085000318850A8001D60AD2
:101D50009B2EDD01DC0180314001BF2088317908F4
:101D60004101D9007808D800AA3C031DBA2ED90831
:101D70000319BF2E80314001AE29883141018031E5
:101D80004001BB218831803127238831C0308B044A
:101D90004D294E011914640002304101D800FA3077
:101DA000E10080314001602488314101D80BCF2E01
:101DB00064004E0119144001620BDF2EEB2BC82E7C
:021DC0006300BE
:020000040001F9
:0A000E008C3F7D3DFF3FFF1FFE3FCA
:00000001FF
;PIC16F15354
;CRC=244F  CREATED="26-Jun-18 11:12"
